:020000040800F2
:10000000E86300207502000857180008AF170008C1
:10001000551800083D070008D51C00080000000026
:10002000000000000000000000000000DD010008EA
:10003000590700080000000021020008F518000818
:100040008F0200088F0200088F0200088F0200084C
:100050008F0200088F0200088F0200088F0200083C
:100060008F0200085D0700087D0700088F02000866
:100070008F0200088F0200088F0200088F0200081C
:100080008F0200088F0200088F0200088F0200080C
:100090008F0200088F0200088F0200088F020008FC
:1000A0008F0200088F0200088F0200088F020008EC
:1000B00069190008751900088F0200088F020008EE
:1000C0008F0200088F0200088F0200088F020008CC
:1000D0008F020008A91C00088F0200088F02000888
:1000E0008F0200088F0200088F0200088F020008AC
:1000F0008F0200088F0200088F0200088F0200089C
:100100008F0200088F0200088F0200088F0200088B
:100110008F0200088F0200088F0200088F0200087B
:100120008F0200088F0200088F0200088F0200086B
:1001300000F002F800F042F80AA090E8000C8244B7
:100140008344AAF10107DA4501D100F037F8AFF294
:10015000090EBAE80F0013F0010F18BFFB1A43F0A5
:1001600001031847E43F000004400000103A24BF98
:1001700078C878C1FAD8520724BF30C830C144BF0C
:1001800004680C607047000000230024002500264E
:10019000103A28BF78C1FBD8520728BF30C148BFEA
:1001A0000B607047642900F0F180732900F026820B
:1001B000002070471FB51FBD10B510BD00F08CFAB0
:1001C0001146FFF7F7FF01F0FDFD00F0AAFA03B4B6
:1001D000FFF7F2FF03BC01F08EFD0000224B19680F
:1001E0000868B0E8F00F80F30988BFF36F8F4FF015
:1001F000000080F311884EF00D0E704700000000E3
:1002000006480068006880F3088862B661B6BFF3EC
:100210004F8FBFF36F8F00DF00BF00BF08ED00E01E
:10022000EFF30980BFF36F8F0F4B1A6820E9F00FCF
:10023000106008B54FF0900080F31188BFF34F8F26
:10024000BFF36F8F03F002F84FF0000080F31188C6
:10025000BDE8084019680868B0E8F00F80F3098825
:10026000BFF36F8F704700BF30000020EFF30580B1
:10027000704700000948804709480047FEE7FEE74D
:10028000FEE7FEE7FEE7FEE7FEE7FEE7FEE7FEE746
:1002900004480549054A064B7047000067190008E5
:1002A00031010008E85D0020E8630020E85F0020DD
:1002B000E85F0020704700000FB4044910B503AA9E
:1002C000029800F09FF910BC5DF814FBC0000020FC
:1002D0002DE9F0410E460446002020622046E168E8
:1002E000884730B3252805D0D4E901219047206AFA
:1002F000401CF2E7E168204600278847050018D037
:10030000A5F14100192802D820354FF40067324684
:10031000294620462760FFF745FF40B1012804D059
:10032000F61D26F007060836D8E7361DD6E728461C
:10033000DAE7206ABDE8F08170B50C460546012A6F
:1003400005D02878800600D5EA69002302E0012361
:1003500005E05B1C934202D2E05C0028F9D1A86959
:10036000E618C01AA861286A184428622846AFF324
:10037000008004E0D5E9012114F8010B9047B44254
:10038000F8D32846AFF3008070BD00002DE9F0419E
:100390000646002410687529314616A510D0AFF323
:1003A0000080002802DA404213A507E031688A077E
:1003B00001D512A502E0490704D511A5012401E0E9
:1003C000AFF3008000210A2206F1240709E0B0FB08
:1003D000F2FCB0FBF2F302FB1C00303078541846FC
:1003E000491C0028F3D123462A463046BDE8F04197
:1003F00000F080B8000000002D0000002B0000007D
:1004000020000000032A40F2308010F0030C00F0BE
:10041000158011F8013BBCF1020F624498BF11F83E
:1004200001CB00F8013B38BF11F8013BA2F10402F7
:1004300098BF00F801CB38BF00F8013B11F003036F
:1004400000F0F280083AC0F0088051F8043B083A06
:1004500051F804CBA0E80810F5E7121D5CBF51F875
:10046000043B40F8043BAFF30080D20724BF11F8EF
:10047000013B11F801CB48BF11F8012B24BF00F854
:10048000013B00F801CB48BF00F8012B704702F098
:10049000FF0343EA032242EA024200F0F9B84FF0B8
:1004A000000200B5134694469646203922BFA0E8C4
:1004B0000C50A0E80C50B1F12001BFF4F7AF0907D0
:1004C00028BFA0E80C5048BF0CC05DF804EB8900C1
:1004D00028BF40F8042B08BF704748BF20F8022B04
:1004E00011F0804F18BF00F8012B7047704770471C
:1004F000704770472DE9F0470D46994692460446ED
:1005000000F124080168880604D5E06921F0100193
:10051000216000E00120A84201DD471B00E0002728
:10052000A1697A1902EB0900081AA0612078C006B7
:1005300002D42046AFF30080002608E0D4E9012170
:100540001AF806009047206A401C761C20624E452F
:10055000F4DB2078C0060AD52046AFF3008006E021
:10056000D4E9012130209047206A401C2062381EC7
:10057000A7F10107F4DC07E0D4E9012118F8050030
:100580009047206A401C2062281EA5F10105F3DC7B
:100590002046AFF300802078000602D50220BDE897
:1005A000F0870120FBE7000001694A1C026108781E
:1005B000704700B58FB0CDE90131002105910549A3
:1005C0007944CDE9031011466846FFF781FE0FB06C
:1005D00000BD0000E5FFFFFF10B5436913B1AFF3A5
:1005E000008001E0FFF7A8FE012010BD127800F1A5
:1005F00024010A7000224A700122EDE711684FF0D1
:10060000FF32E9E7074B70B50D467B44FFF7D1FF9A
:100610000446284600F05CF810B14FF0FF3070BD82
:10062000204670BD6717000010B5203AC0F00B805F
:10063000B1E81850203AA0E81850B1E81850A0E8E6
:100640001850BFF4F5AF5FEA027C24BFB1E8185040
:10065000A0E8185044BF18C918C0BDE810405FEAB0
:10066000827C24BF51F8043B40F8043B08BF70472C
:10067000D20728BF31F8023B48BF11F8012B28BF31
:1006800020F8023B48BF00F8012B70474FF00002F2
:100690000429C0F0128010F0030C3FF402AFCCF13B
:1006A000040CBCF1020F18BF00F8012BA8BF20F802
:1006B000022BA1EB0C01FFF7F4BE5FEAC17C24BF63
:1006C00000F8012B00F8012B48BF00F8012B704700
:1006D000007B00F080007047754600F02BF8AE46B6
:1006E00005006946534620F00700854618B020B53E
:1006F000FFF7CEFDBDE820404FF000064FF00007A9
:100700004FF000084FF0000B21F00701AC46ACE8B9
:10071000C009ACE8C009ACE8C009ACE8C0098D4626
:10072000704710B50446AFF300802046BDE8104086
:10073000FFF74DBD00487047885D0020FEE70000D0
:1007400010B54FF4347002F023F9024900204861DB
:1007500010BD0000000000207047000010B5064CDE
:100760000821204600F0E0F90028F9D0BDE810404B
:10077000082000F0D1B800000018014010B5064C68
:100780001021204600F0D0F90028F9D0BDE8104033
:10079000102000F0C1B800000018014010B590F81A
:1007A00021100022022905D00421816380F8202035
:1007B000012010BD01680B6823F00E030B60016877
:1007C0000B6823F001030B6090F84030C46B0121EB
:1007D00001FA03F3636080F8211080F820201046AE
:1007E00010BD00002DE9F05F90F8211000240229CF
:1007F00003D004218163012485E001680A6822F0A6
:100800000E020A6001680A6822F001020A603F4E87
:100810003E4FB215DFF8F4C0DFF8F090DFF8ECA03F
:10082000DFF8E8B0DFF8E4E00168783F1301150273
:10083000ACF1640CA9F15009AAF13C0AABF1280B08
:10084000AEF1140E4FF48018B14227D9B9420ED040
:10085000614512D049451DD0514518D0594518D091
:10086000714501D1424615E0294EB14201D1012224
:1008700010E0274E1436B14201D110220AE0244E76
:100880002836B14206D0224A3C32914201D11A4662
:1008900000E02A461E49091F0A602BE0B94213D026
:1008A000614517D0494522D051451DD059451DD02D
:1008B000714501D142461AE0B14202D14FF0807237
:1008C00015E0134EB14201D1012210E0104E143652
:1008D000B14201D110220AE00D4E2836B14206D0B5
:1008E0000B4A3C32914201D11A4600E02A460749A0
:1008F00080394A60012180F82110002180F8201001
:10090000416B01B188472046BDE8F09F800002405E
:100910000804024070470000044910B50A6802420A
:1009200002D00860FFF7F6FF10BD0000140401407C
:100930002DE9F84FDFF8C891002409F1040A0AF103
:10094000040B23460F270BF1040ED1E00125A5402F
:1009500006EA0502AA4276D1DFF8A8C14E68A6EBE6
:100960000C0866452BD00DDC032E34D005DC36B3E5
:10097000012E19D0022E2FD11BE0112E16D0122ECF
:100980002AD119E0B8F5881F19D006DCB8F5803FE8
:1009900015D0B8F5801F1FD111E0B8F5001F0ED09B
:1009A000B8F5041F18D10AE0CB6815E0CB681B1D11
:1009B00012E0CB6808330FE0CB680C330CE08B6897
:1009C0002BB1012B4FF0080303D0456104E0042351
:1009D00002E0056100E00023FF2A01D8064601E09D
:1009E00000F104064FEA840501D9A5F12005D6F8E7
:1009F000008007FA05FC28EA0C0803FA05F548EA26
:100A00000508C6F800804D68ED0070D53E4DAE6912
:100A100046F00106AE61AD6924F0030605F001055C
:100A200000953A4D06EB050CDCF80850A607360F8A
:100A300007FA06F825EA0805DFF8D480404503D117
:100A40004FF0000825E052E0DFF8C880404502D1B1
:100A50004FF001081DE0DFF8C080404502D14FF0A3
:100A6000020816E0DFF8B480404502D14FF00308D9
:100A70000FE0DFF8AC80404502D14FF0040808E0F9
:100A8000DFF8A080404502D14FF0050801E04FF0AB
:100A9000060808FA06F848EA0508CCF808804D6808
:100AA000D9F80060ED034D4601D5164300E09643AA
:100AB0002E604D68DAF80060AD03554601D5164347
:100AC00000E096432E604D68DBF80060ED025D4665
:100AD00001D5164300E096432E604D68DEF80060B5
:100AE000AD02754601D5164300E096432E60641CA6
:100AF0000A681646E2407FF429AFBDE8F88F00008F
:100B000000040140000011100010024000000140EC
:100B100000080140000C0140001001400014014099
:100B200000180140001C01408068084000D00120EE
:100B300070470AB1016170470904FBE7014880680A
:100B40007047000018000020074810B5016841F008
:100B500010010160032000F079F8002000F006F891
:100B600000F024F8002010BD0020024070B50D4DAB
:100B700004464FF47A712878B1FBF0F00A4909680D
:100B8000B1FBF0F000F0FCFA48B9102C07D20022BB
:100B90002146501E00F03AF800206C6070BD012024
:100BA00070BD000018000020240000200E4808B589
:100BB000816941F001018161816901F001010091C8
:100BC000C16941F08051C161C06900F0805000905E
:100BD000052000F03BF80548416821F0E06141F054
:100BE0000071416008BD000000100240000001409B
:100BF000002809DB00F01F0201219140400980001C
:100C000000F1E020C0F8001170470000F0B40E4B76
:100C10001B680C46C3F30223C3F10705042D00D95A
:100C20000425191D072901D2002300E0DB1E01263F
:100C300006FA05F1491E214099409E40761E164055
:100C40003143F0BC01F047B80CED00E0064900F07C
:100C5000070208684FF6FF03184040EA0220034AE3
:100C600010430860704700000CED00E00000FA053A
:100C70002DE9F0470F46050061D0434E306800F083
:100C80000700B84209D2306820F0070038433060CE
:100C9000306800F00700B84251D128683B4C81070A
:100CA00012D5400703D5606840F4E06060602878A2
:100CB000000703D5606840F4605060606068A96810
:100CC00020F0F000084360602878C00728D06868EA
:100CD000012810D02168022810D0890700292EDAB7
:100CE000616821F0030101436160FFF727FF80463F
:100CF00041F288390DE021688903EFE78901EDE7CA
:100D0000FFF71CFFA0EB0801494502D90320BDE80D
:100D1000F0876068696800F00C00B0EB810FEFD1DC
:100D2000306800F00700B8420BD9306820F00700A7
:100D300038433060306800F00700B84201D001202D
:100D4000E5E72878400705D56068E96820F4E060A9
:100D5000084360602878000706D56068296920F498
:100D6000605040EAC100606000F038F86168084AED
:100D7000C1F30311515CC840064908600648006889
:100D8000FFF7F4FE0020C2E70020024000100240FE
:100D900030410008240000201C00002004480549C0
:100DA00000684968044AC1F30221515CC840704799
:100DB000240000200010024040410008044805497A
:100DC00000684968044AC1F3C221515CC8407047B9
:100DD00024000020001002404041000812A185B00C
:100DE0000FC98DE80F0014A0144A006804905168E0
:100DF000134801F00C03042B10D0082B0ED1C1F3C3
:100E00008343C9031DF803000AD5516804AAC1F33E
:100E10004041515C0A4A5043B0FBF1F005B07047C5
:100E200008494843FAE700000203040506070809D9
:100E30000A0B0C0D0E0F10100102000000100240F2
:100E400000127A0000093D002DE9F84F040070D02F
:100E50002078C04DC00749D06868C0F381000128E0
:100E600007D06868C0F38100022809D16868C00310
:100E700006D52868800339D560680028E7D035E0BA
:100E80006068B0F5803F0BD010B1B0F5A02F11D045
:100E9000286820F480302860286820F4802002E050
:100EA000286840F480302860606890B1FFF746FE03
:100EB00006460AE0286840F480202860F0E700BF7A
:100EC000FFF73CFE801B642873D828688003F7D5A1
:100ED0000CE0FFF733FE064605E000BFFFF72EFEED
:100EE000801B6428F0D828688003F7D420789A4EB5
:100EF00080074FF001094FF0000839D5686810F0FD
:100F00000C0F07D06868C0F38100022809D1686817
:100F1000C00306D42868800714D52069012808D1A9
:100F200010E02069B0B1C6F80090FFF707FE074651
:100F300005E00AE1FFF702FEC01B0228C4D82868BA
:100F40008007F7D52868616920F0F80040EAC10001
:100F500028600DE0C6F80080FFF7F0FD074604E0CA
:100F6000FFF7ECFDC01B022823D828688007F7D4C0
:100F7000207800072CD57948A169D9B1C0F8009034
:100F8000FFF7DCFD074604E0FFF7D8FDC01B022891
:100F90000FD8686A8007F7D571484FF4FA51006896
:100FA000B0FBF1F0009000BF0098411E0091FAD212
:100FB0000EE080E0C0F80080FFF7C0FD074604E0C7
:100FC000FFF7BCFDC01B022875D8686A8007F7D4FC
:100FD0002078400760D5E8690027C00008D4E86998
:100FE00040F08050E861E869012700F080500090EF
:100FF0005C480168C90513D40168834641F48071D7
:101000000160FFF79BFD824606E000BFFFF796FDFB
:10101000A0EB0A0064284ED8DBF80000C005F5D527
:10102000E06801280AD008B1052813D0286A20F00A
:1010300001002862286A20F0040002E0286A40F0DB
:1010400001002862E06841F2883B98B1FFF776FD25
:1010500082460BE0286A40F004002862EEE700BFF9
:10106000FFF76CFDA0EB0A0159455AD8286A8007A2
:10107000F6D50CE0FFF762FD824605E0FFF75EFD66
:10108000A0EB0A0159454CD8286A8007F6D41FB155
:10109000E86920F08050E861E06988B36968C1F3CD
:1010A0008101022944D00228C6F8608004D0FFF7ED
:1010B00045FD044638E034E0FFF740FD074604E014
:1010C000FFF73CFDC01B02282BD828688001F7D40D
:1010D000206AB0F5803F05D16868A16820F400302F
:1010E00008436860D4E908010843696821F4741171
:1010F00008436860C6F86090FFF720FD044606E0EC
:1011000025E000BFFFF71AFD001B022809D8286858
:101110008001F7D51BE000BFFFF710FD001B022880
:1011200002D90320BDE8F88F28688001F4D40EE0CE
:101130000128F7D06868226A00F48031914204D116
:10114000616A00F47010884201D00120EAE70020B3
:10115000E8E70000001002400000424280044242E2
:1011600024000020007000404FF0E02104280869AE
:1011700003D020F004000861704740F00400FAE753
:1011800010B5401EB0F1807F01D3012010BD4FF09B
:10119000E02460610F21601700F09DFD0020A06138
:1011A00007202061002010BD7047704710B5040073
:1011B00003D094F83D0010B107E0012010BD0020DD
:1011C00084F83C00204600F01EF8022084F83D0020
:1011D000211D206800F0D4FB012084F8460084F82B
:1011E0003E0084F83F0084F8400084F8410084F811
:1011F000420084F8430084F8440084F8450084F8F1
:101200003D00002010BD704790F83D10012901D02D
:1012100001207047022180F83D100168CA6842F041
:101220000102CA6000680E4988420ED00D4988420A
:101230000BD0B0F1804F08D00B49884205D00B4944
:10124000884202D00A49884204D1816801F007012E
:10125000062903D0016841F00101016000207047B8
:10126000002C014000340140000400400008004010
:10127000000C0040704770B50446006801694FF0EB
:101280000005C943890715D4C168C943890711D42A
:10129000E91E0161012020772068806980072046CF
:1012A00002D0FFF7E7FF04E000F098F8204600F0D6
:1012B00096F8257720680169C943490717D4C168A2
:1012C000C943490713D46FF004010161022020775C
:1012D0002068806910F4407F204602D0FFF7CAFFE3
:1012E00004E000F07BF8204600F079F825772068CC
:1012F0000169C943090716D4C168C943090712D453
:101300006FF008010161042020772068C069800720
:10131000204602D0FFF7AEFF04E000F05FF8204661
:1013200000F05DF8257720680169C943C90617D424
:10133000C168C943C90613D46FF0100101610820C8
:1013400020772068C06910F4407F204602D0FFF764
:1013500091FF04E000F042F8204600F040F82577C5
:1013600020680169C943C90708D1C168C943C907D1
:1013700004D1891E0161204600F032F8206801691D
:10138000C943090609D4C168C943090605D46FF0E9
:10139000800101612046FFF707FF20680169C9430A
:1013A000490609D4C168C943490605D46FF0400114
:1013B0000161204600F032F820680169C9438906BE
:1013C0000BD4C168C943890607D46FF020010161BD
:1013D0002046BDE87040FFF7E8BE70BD704770471B
:1013E0000068B0F1804F05D00549884206D105A0BC
:1013F000FEF762BF08484169491C4161704700001F
:101400000004004054494D332069732072756E6E9C
:10141000696E6720210D0A000000002070477047A8
:10142000704710F83D1F407808437047F8B50268D0
:1014300004461068D168536910F00F0F4FF0000593
:1014400053D003F0010601F4907737435FD0C20711
:1014500005D0CA0503D5226C42F00102226442077E
:1014600005D5DA0703D0226C42F00202226482071B
:1014700005D5DA0703D0226C42F004022264020789
:1014800007D501F02002324303D0226C42F008025B
:101490002264226C002A34D0800604D5880602D546
:1014A000204600F02DFB20684069216CC0F38010BD
:1014B000090700D430B3204600F00AFB20684169D8
:1014C00049061BD5416921F040014161A06BA8B1DB
:1014D00058494163A06BFFF785F9002811D0A06B34
:1014E000416B01B0BDE8F040084783060FD58B067D
:1014F0000DD52046BDE8F84000F002BB2046FFF7BE
:101500008FFFF8BD2046FFF78BFF2564F8BD266BE3
:101510002023012E52D1C60650D5CE064ED51068D6
:1015200050680090506940062AD5A16B0868406851
:101530000004000CEAD0A68D8642E7D9E0858869D0
:10154000202818D0D06820F48070D06020684169CD
:1015500021F0010141612068416921F040014161B0
:1015600084F83E3025632068C16821F01001C16015
:10157000A06BFFF713F9A08DE18D401A81B219E03D
:10158000A08DE18D401A81B2E08D0028BED00029E7
:10159000BCD0D06820F49070D0602068426922F0FE
:1015A0000102426184F83E3025632068C26822F05F
:1015B0001002C2602046FFF732FFF8BD05062BD5AA
:1015C0000D0629D594F83D002128F6D1A068B0F584
:1015D000805F01D12069B0B1206A411C216221687D
:1015E00000784860E08C401E0004000CE084E4D1E8
:1015F0002068C16821F08001C1602068C16841F0A5
:101600004001C160F8BD206A0088C0F30800506046
:10161000206A801C2062E5E74006F3D54806F1D534
:10162000D168204621F04001D16084F83D3000F0BF
:10163000BDF8F8BDC11A000870B5040004D094F8D4
:101640003D00002510B106E0012070BD84F83C503B
:10165000204600F023F8242084F83D002068C1686B
:1016600021F40051C160204600F0A6FA206801690B
:1016700021F4904101612068416921F02A01416112
:101680002068C16841F40051C1602564202084F8BD
:101690003D0084F83E00002070BD000010B50068D9
:1016A0001E4986B0884236D11D48816941F0040147
:1016B0008161816901F004010491816941F48041F3
:1016C0008161816901F480410491816941F00101E6
:1016D00081618069134C00F0010004904FF40070A8
:1016E000009002200190012002900320039069469F
:1016F0002046FFF71DF92015009000200190694653
:101700002046FFF715F92520FFF772FA002211464F
:101710002520FFF77BFA06B010BD0000003801401D
:10172000001002400008014090F83E30202B0ED1FE
:1017300059B152B190F83C30012B08D0012380F808
:101740003C300023036300F093BA0120704702206D
:101750007047000030B50068114988420CD111482B
:1017600041880A0408D402464C0412784FF0000362
:1017700006D50A2A01D0438030BD41F400410DE076
:101780000D2A09D0C1F30D04074D491C89B22A5511
:101790004180C729EFD830BD41F48041418030BD40
:1017A00000380140BC0000207C5C00207047FEE750
:1017B0002DE9F04385B0002423480094019402945D
:1017C0000394816941F040018161816901F0400128
:1017D0000491816941F004018161816901F0040192
:1017E0000491816941F0080181618069DFF85C90B2
:1017F00000F008000490012220214846FFF799F9E3
:10180000DFF84C80002220214046FFF792F9202784
:101810000326012500970396CDE901546946484601
:10182000FFF786F800970396CDE9015469464046D4
:10183000FFF77EF818208DE8710069464846FFF7EB
:1018400077F805B0BDE8F0830010024000180140B1
:10185000000C0140FEE7FEE71CB501F04DF9184809
:10186000012300901A464FF4FA7116A002F0B6FB5D
:10187000164C02230122E060154800904FF47A7163
:1018800014A002F0ABFB2061201D0224CDE9004032
:101890000023C82211A1134802F0BAF80B48002314
:1018A0000830CDE9004082220FA1114802F0B0F8C3
:1018B000002001F057FBBDE81C4001F05BB90000BF
:1018C000611A000854494D455231000000000020C3
:1018D000911A000854494D45523200005461736B0F
:1018E000310000000D1A00087461736B32000000B3
:1018F0006529000810B502F005F9012803D0BDE8FC
:10190000104001F071BD10BD30B58FB02821684680
:10191000FEF7C5FD14210AA8FEF7C1FD0121080448
:10192000CDE900100024029402250491CDE907506E
:101930004FF4E01009906846FFF786FA08B172B6D6
:10194000FEE70F20CDE90A054FF48060CDE90C4099
:1019500002210AA80E94FFF78BF9002801D072B675
:10196000FEE70FB030BD70470148FFF784BC0000B0
:10197000FC0700200148FFF77EBC0000440800205F
:10198000F0B502681C4B1D4D1D4E1E4F1E4C4FF0F6
:10199000804C984209D0A04207D0604505D0A842AB
:1019A00003D0B04201D0B84204D122F0700E4A6890
:1019B00042EA0E02984209D0A04207D0604505D005
:1019C000A84203D0B04201D0B84203D122F44075FE
:1019D000CA682A434D6922F080022A4302608A685D
:1019E000C2620A688262984201D0A04201D10969AC
:1019F000016301214161F0BD002C01400004004061
:101A000000080040000C00400034014008B5124CB2
:101A1000124D4FF6FF7608212046FFF785F8B8B93A
:101A200008212046FFF780F80028F9D002F078F866
:101A30000246009600230121E86802F02FFB02F025
:101A40006FF80246009600230121286902F026FB68
:101A50000A2001F04DFADEE70018014000000020E6
:101A600003480178491CC9B2017002A0FEF724BCEA
:101A7000000000205468652054696D657220312093
:101A800069732072756E6E696E672025640D0A0099
:101A900003484178491CC9B2417002A0FEF70CBC52
:101AA000000000205468652054696D657220322062
:101AB00069732072756E6E696E672025640D0A0069
:101AC00010B5406A0021C185C184FFF7A9FC10BD93
:101AD0000168CA6822F49072CA6001684A6922F0FB
:101AE00001024A61016B012904D10168CA6822F030
:101AF0001002CA60202180F83E1000210163704767
:101B000008B590F83E10222901D0022008BD826855
:101B10004FF480539A4201D1016921B1816A9A42FE
:101B20001BD04AB10AE00268816A5268C2F3080217
:101B30000A80816A891C08E0026972B102685268F1
:101B400002F07F020A70816A491C8162C18D491EC0
:101B50000904090CC18503D019E002685268F1E755
:101B60000168CA6822F02002CA600168CA6822F4CB
:101B70008072CA6001684A6922F001024A6120212C
:101B800080F83E10016B012903D0FFF7E3FD002030
:101B900008BD002101630168CA6822F01002CA6012
:101BA00001680A68D20602D50A6849680091818DE9
:101BB000FFF735FCEBE7000070B5044600680169EB
:101BC000E26821F44051114301612169A068084392
:101BD000616908432168CA6841F20C639A43024371
:101BE000CA6020684169A26921F4407111434161D2
:101BF0001E492068884202D1FFF7E0F801E0FFF7B4
:101C0000CDF800EBC00101EB001260686421800098
:101C1000B2FBF0F3B3FBF1F36FF018067343B2FBC2
:101C2000F0F5B2FBF0F605EB8305322303EB051567
:101C3000B5FBF1F5B6FBF1F605F0F00505EB061581
:101C4000B2FBF0F6B2FBF0F0B0FBF1F06FF018026F
:101C5000504306EB800003EB0010B0FBF1F021686D
:101C600000F00F002844886070BD0000003801407B
:101C700081628285C28500210164222280F83E2093
:101C800080F83C100168CA6842F48072CA6001683A
:101C90004A6942F001024A610068C16841F02001CE
:101CA000C16000207047000010B50848FFF7BEFB78
:101CB0000648FFF7B6FB2028FAD101220449034861
:101CC000FFF732FD0028F8D110BD0000445D002070
:101CD000BC000020FEE70907090E002804DB00F124
:101CE000E02080F80014704700F00F0000F1E020C1
:101CF00080F8141D7047704710B50420FFF734FAC0
:101D00000C480D4A01680D48B1FBF2F3B1FBF2F14A
:101D10004FF47A7251430370012242804FF0E02069
:101D2000026942F0020202614161016941F0010170
:101D3000016110BD2400002040420F00B8000020C7
:101D40000A490120096809B1002070470849CA6999
:101D5000002AF9D14A88002AF6D1044A28321268AA
:101D60000969491E8A42F0D102207047740B002095
:101D70002800002004490A685206FCD5024AC1B274
:101D8000121D116070470000003801400EB5084A6E
:101D90000020A2F502718DE807000346822205A10A
:101DA000074801F063FEBDE80E4001F0C5B9000030
:101DB000CC02002053746172745F5461736B000035
:101DC0005918000810B5FEF7BFFEFFF795FFFFF7A3
:101DD0009BFD0320FEF73AFFFFF7EAFC4FF4E130EA
:101DE00000F012FEFFF7D2FF002010BD2DE9F041F8
:101DF000204C0F4605462688A068001D00F020FEF6
:101E000038B9A06890F82C1001208840616981439E
:101E10006161A5F57F40FF3815D1A7B11649A268C9
:101E200048689060A3688268DA60A2688368121DBF
:101E30005A60A268121D8260A06841610868401C57
:101E40000860BDE8F081701985B2A068B542858050
:101E5000A16805D2206CBDE8F041091D00F026BE46
:101E6000E06B091D00F022FEA0888542E9D2A58022
:101E7000E7E70000280000209C0B00202DE9F0413E
:101E8000054600F039FE354C2069401C2061A068F1
:101E9000334F10B1A06930B32BE0A5602069012851
:101EA00027D1002606EB860007EB800000F0F0FD4E
:101EB000761C202EF6D32B4800F0EAFD294814307A
:101EC00000F0E6FD2748283000F0E2FD25483C30D0
:101ED00000F0DEFD2348503000F0DAFD2148E063D9
:101EE0001430206405E0A068E96AC06A884200D81E
:101EF000A560606A401C60626864E96A01206269EA
:101F000088401043606101EB810007EB800040686E
:101F1000A8608168E9608268291D51608160E86A73
:101F200000EB800007EB8001696157F82010491C25
:101F300047F8201000F01EFEA06900280CD0A06811
:101F4000E96AC06A884207D207494FF080500860AA
:101F5000BFF34F8FBFF36F8FBDE8F08128000020E3
:101F6000CC0800204C0B002004ED00E038B500F058
:101F7000C3FD104C6068C8B90F4800F089FD0E48D9
:101F8000143000F085FD0C48E060143020610A4BED
:101F90000020A43B009003F154021021052001F021
:101FA00039FA606010B105A100F042FFBDE8384089
:101FB00000F0E0BD6C000020540C0020546D725104
:101FC0000000000030B4026C0B46002A0BD0C16840
:101FD0001144C1608468A14201D30168C16030BC72
:101FE0001846FEF70FBA30BC70472DE9F041856BFB
:101FF000174604460026026C82B1C7B1E068FEF7BE
:1020000001FAE168206C091AE1602268914202D26B
:10201000A168081AE060022F16D017E02068A8B95E
:10202000A06801F03BFE06460020A0600EE060685C
:10203000FEF7E8F9216C606808446060A168884296
:1020400004D32068606001E005B16D1E6D1CA563BE
:102050003046BDE8F081000010B5044690F85D0000
:1020600058B101280CD002280FD0BDE8104040F62E
:102070009C7206A10CA0FEF71FB9206B00F0AEFD0C
:102080002046BDE8104000F0A9BD10BD2E2E5C46D4
:1020900072656552746F735C536F757263655C74BF
:1020A00061736B732E6300004572726F723A257311
:1020B0002C25640D0A0000000A4800214269012A0B
:1020C00000D901218268D26A0AB100207047064A0D
:1020D0001268012AF9D80029F7D181880088081AE6
:1020E00080B2704728000020CC08002010484FF430
:1020F000A041420706D0C01D0D4920F00700411A3B
:10210000C1F5A0410B4A00230144C2E9000308398C
:10211000183A21F0070111604B600B600B1AC0E9FF
:10212000001393604FF0004053605061704700000F
:102130007C0C0020B00000201E4C1F4E12E000BF9F
:1021400000F0DAFCF068C568281D00F079FC206911
:10215000401E2061E068401EE06000F00BFD284654
:10216000FFF77AFFE0680028EAD1144800680128E8
:1021700007D913494FF080500860BFF34F8FBFF36A
:102180006F8FFFF799FF0228D7D301F057F8A08887
:102190002188884205D240F6C7520AA110A0FEF756
:1021A0008BF8FFF789FF022801D300F08FFD01F0C3
:1021B00067FEC2E728000020880B0020CC08002022
:1021C00004ED00E02E2E5C4672656552746F735C00
:1021D000536F757263655C7461736B732E6300007B
:1021E0004572726F723A25732C25640D0A00000047
:1021F00070B51D46049C61B1C4F80020C4E90F010C
:102200000121204601F04CF984F850500020A064D0
:1022100070BD2460F2E700002DE9F05FDDE90B946A
:102220000F461546834691009A460A9EA522206BCA
:10223000FEF72DF96FF00301206B01EB85010844D7
:1022400020F007085FEA487005D04FF458721FA1CC
:1022500025A0FEF731F8002567B100202218395C6F
:1022600082F83410395C11B1401C1028F6D384F880
:10227000435001E084F83450202E06D340F29732C8
:1022800012A119A0FEF718F81F26E662C4E913652B
:10229000201D00F008FC04F1180000F004FC24618B
:1022A000C6F12000208364626565A56584F85C50F2
:1022B00052465946404600F043FB2060B9F1000FFA
:1022C00001D0C9F80040BDE8F09F00002E2E5C460A
:1022D00072656552746F735C536F757263655C747D
:1022E00061736B732E6300004572726F723A2573CF
:1022F0002C25640D0A0000002DE9F047DDE9089463
:102300001E4617460D00804605D140F26B120BA108
:1023100011A0FDF7D1FFFFF729FEC4F80080258347
:10232000C4E90769201D00F0BEFB002F04D014F89B
:10233000280F40F004002070BDE8F0872E2E5C4688
:1023400072656552746F735C536F757263655C740C
:10235000696D6572732E63004572726F723A2573F0
:102360002C25640D0A00000030B5114900E011462B
:102370000A688242FBD34B685C18844203D14068F0
:1023800018444860084643681C18944209D1084C18
:10239000183C2468A24209D052681A4442600A6874
:1023A00012680260814200D0086030BD0460F9E725
:1023B000B000002070B5002481800C4D0061914276
:1023C00007D8D11A028B89B2914206D2011D286921
:1023D00007E09A4203D2994201D3012403E0011D90
:1023E000E86800F063FB204670BD00006C00002030
:1023F00010B5044600F080FBA06B28B15FF000042C
:1024000000F0B8FB204610BD0124F9E7F1B50098B3
:102410000026846C2CB940F6D53219A11FA0FDF717
:102420004BFFA06BE16B884205D340F6D63214A176
:102430001AA0FDF741FFA06BE16B88421ED294F910
:102440004550002269462046FFF7CFFD0646681C2E
:1024500002D07F2D09D00EE0606A78B104F124002B
:1024600001F08AFC50B1012608E040F6F63204A1E2
:102470000AA0FDF721FF6D1C84F845503046F8BDD9
:102480002E2E5C4672656552746F735C536F757265
:1024900063655C71756575652E6300004572726FCA
:1024A000723A25732C25640D0A00000070B50646AB
:1024B0000D480D46C068C068C468201D00F0C0FA11
:1024C00094F82800410705D52A463146204600F0F9
:1024D000D7F803E000F0FE0084F828002046216AC7
:1024E000BDE87040084700006C00002070B586B061
:1024F0003C4E6EE00098002806DADDE90201019A00
:1025000090470098002864DB029C606910B1201D90
:1025100000F096FA04A800F0D7F8054600980A28BB
:1025200057D2DFE800F05605052B314A05052B315F
:1025300094F828002A4640F0010084F82800BDF8ED
:102540000430208B184481B22046FFF733FF98B344
:1025500094F82800410709D5BDF80400218B2A46CC
:10256000084481B2204600F08BF803E000F0FE0042
:1025700084F82800216A204688472AE014F8280FAA
:1025800000F0FE00207024E094F8280040F00100E4
:1025900084F82800BDF80400208328B940F259329D
:1025A00011A118A0FDF788FE208B2B46284481B28C
:1025B0001A462046FFF7FEFE0BE094F8280081073C
:1025C00003D4204600F00AFB03E000F0FE0084F88C
:1025D000280000226946706801F01AF9002889D1A4
:1025E00006B070BD6C0000202E2E5C4672656552F0
:1025F000746F735C536F757263655C74696D65723B
:10260000732E63004572726F723A25732C25640D28
:102610000A000000F8B50D46064600F00FFE6846B9
:1026200000F052F80446009810B101F029FCF8BD02
:102630001148B5B101690968E1B10025311B89B2C2
:102640002A46406800F032FC01F01AFC0028EED166
:102650000A494FF080500860BFF34F8FBFF36F8F70
:10266000F8BDA642EAD801F00BFC21463046FFF740
:102670001DFFF8BD0125E1E76C00002004ED00E03E
:1026800070B516460C46054605E0288B296A20449D
:1026900084B228468847288B2346204481B232469C
:1026A0002846FFF787FE0028EFD170BD0548C16BB3
:1026B000096821B1C16BC9680988818070474FF6EC
:1026C000FF71FAE7280000202DE9F041064601F0ED
:1026D00027FA0E4C05462088854214D24FF6FF7724
:1026E00004E0C06839460088FFF7E0FEE068016852
:1026F0000029F6D12169C4E903100120306025804A
:102700002846BDE8F0810020F8E700006C000020BA
:1027100008484068401C04D0CE2207A112A0FDF753
:10272000CBFD902080F31188BFF34F8FBFF36F8FE5
:10273000FEE70000800000202E2E5C467265655288
:10274000746F735C536F757263655C706F727461E4
:10275000626C655C525644535C41524D5F434D334D
:102760005C706F72742E63004572726F723A2573DB
:102770002C25640D0A000000074CE068016841B197
:10278000C0680021B0F80000FFF744FFFFF7AEFE7D
:10279000F3E701210020F7E76C0000202DE9F0416C
:1027A000044600F0A9F994F9455004F124060FE01D
:1027B000A06C18B12046FFF729FE04E0606A48B11A
:1027C000304601F0D9FA08B100F042FC6D1E6DB23E
:1027D000002DEDDC4FF0FF3684F8456000F0CAF9BB
:1027E00000F08AF994F9445004F1100709E02069D7
:1027F00048B1384601F0C0FA08B100F029FC6D1E5E
:102800006DB2002DF3DC84F84460BDE8F04100F0C7
:10281000B1B900002DE9F0410546002600F00EFD9B
:10282000364F386808B9FFF761FC7869054258D11E
:10283000002D56D005F10804AC4252D960070ED0E5
:1028400004F00700C0F108002044A04249D9044622
:10285000400704D09C222AA135A0FDF72DFD002CB5
:102860003FD0786884423CD82448183001460D682F
:1028700001E028460D466968A14202D22968002974
:10288000F7D13968B8468D422BD0066829680160B7
:1028900068680836001B10280ED92F19780704D055
:1028A000CF2217A122A0FDF707FD6868001B786002
:1028B00038466C60FFF758FD6A68D8F80410404647
:1028C000891AC8F80410D8F80830994200D28160FB
:1028D00041690A430021C5E90012C168491CC8F8D2
:1028E0000C1001F0CDFA700705D04FF4887204A1E6
:1028F0000FA0FDF7E1FC3046BDE8F0819800002014
:102900002E2E5C4672656552746F735C536F7572E0
:1029100063655C706F727461626C655C4D656D4D72
:10292000616E675C686561705F342E630000000053
:102930004572726F723A25732C25640D0A000000EF
:1029400010B5031F4FF080741C601B1F21F00101A4
:102950001960191F024B0B60143940380A6010BD12
:10296000112700084FF4FA7404A0FDF7A5FC03A09A
:10297000FDF7A2FC204600F0BBFAF5E77461736B2B
:102980002069732072756E6E696E6720210D0A00D2
:1029900038B51B490446C86940F00200C861C869DF
:1029A00000F002000090C86940F00100C861C869E9
:1029B000002200F00100009004211D20FEF726F9FE
:1029C0001D20FEF715F900220A211C20FEF71EF932
:1029D0001C20FEF70DF90B494FF08040641E086083
:1029E000802088610020C1E903401022C1E9010272
:1029F0000846FEF7DBFBBDE838400248FEF704BCA2
:102A000000100240FC0700200B4910B5094AC1E93B
:102A1000002000208860C860086188610C2048613F
:102A20000846FEF709FEBDE81040012203490248AE
:102A3000FEF77ABE00380140445D0020BC00002053
:102A4000D0E9013201699A60D0E901235A604A68ED
:102A5000824201D182684A60002202610868401EF9
:102A60000860086870470000034B036003F16000D2
:102A700008608220106070472C030020034B036025
:102A800003F1600008608220106070479405002008
:102A900000F108014FF6FF7241600281C1600161DF
:102AA00000210160704700210161704730B50B883B
:102AB000A3F57F42FF3A02D000F1080202E002696A
:102AC00004E02246546825889D42FAD953684B6039
:102AD00099608A60516008610168491C016030BDDD
:102AE00042684A6093688B6093685960916008619E
:102AF0000168491C01607047902080F31188BFF382
:102B00004F8FBFF36F8F09494868401C4860012808
:102B10000AD10748006810F0FF0F05D040F2731289
:102B200004A110A0FDF7C8BB704700008000002082
:102B300004ED00E02E2E5C4672656552746F735C86
:102B4000536F757263655C706F727461626C655C03
:102B5000525644535C41524D5F434D335C706F722B
:102B6000742E63004572726F723A25732C25640DC2
:102B70000A00000010B5084C606828B94FF4BD7217
:102B800006A112A0FDF798FB6068401E606001D1AD
:102B900080F3118810BD0000800000202E2E5C46BE
:102BA00072656552746F735C536F757263655C70A8
:102BB0006F727461626C655C525644535C41524D55
:102BC0005F434D335C706F72742E63004572726F99
:102BD000723A25732C25640D0A00000070B5002898
:102BE0002DD0174DA0F1080460686969084205D12D
:102BF0004FF4927213A11FA0FDF75EFB206828B16D
:102C000040F225120FA11BA0FDF756FB6168686911
:102C1000014214D02268002A11D18143616000F082
:102C20000DFB60686968084468602046FFF79CFBFC
:102C30002869401C2861BDE8704001F021B970BDD1
:102C4000980000202E2E5C4672656552746F735C8E
:102C5000536F757263655C706F727461626C655CF2
:102C60004D656D4D616E675C686561705F342E63A4
:102C7000000000004572726F723A25732C25640DB6
:102C80000A0000000F4810B501684FF47A72B1FBDA
:102C9000F2F30D486FF07F448360B4FBF3F3C3603D
:102CA000B1FBF1F32D24B4FBF3F303614FF0E0200B
:102CB000002303618361B1FBF2F1491E41610721E9
:102CC000016110BD24000020800000202DE9F041AA
:102CD000324E0546F068854200D985B24FF0E024B7
:102CE000206920F001002061A169B268681E02FB22
:102CF00000173069874200D93F1A72B6BFF34F8F71
:102D0000BFF36F8FFFF71CF848B367610022A26121
:102D1000206940F00100206125B1BFF34F8F30BF23
:102D2000BFF36F8F62B6BFF34F8FBFF36F8F72B673
:102D3000BFF34F8FBFF36F8F062020612069C00360
:102D400014D5A069B168381A081A3369401E984230
:102D500001D3884200D9481E60616D1E10E0A06951
:102D60006061206940F00100206111E0B068A16954
:102D70004543691AB1FBF0F56B1C4343581A606177
:102D8000A261206940F001002061A8B200F02CFA95
:102D9000B068401E606162B6BDE8F081800000202E
:102DA00010B5FDF763FA104C10280CD300F1E020A9
:102DB00090F8F0032178884205D240F2BD220BA1A1
:102DC00016A0FDF779FA19480068616900F4E0601F
:102DD000884207D9BDE8104040F2CD2203A10FA0E0
:102DE000FDF76ABA10BD0000800000202E2E5C4660
:102DF00072656552746F735C536F757263655C7056
:102E00006F727461626C655C525644535C41524D02
:102E10005F434D335C706F72742E63004572726F46
:102E2000723A25732C25640D0A0000000CED00E0B9
:102E300070B50D46040005D140F6C8220FA116A0BA
:102E4000FDF73AFA0022002D16D01748002300BFE4
:102E500000EBC3014E68A64202D100EBC30207E0BB
:102E60001AB950F8336006B90A465B1C082BEFD339
:102E7000002A01D0C2E9005470BD00002E2E5C462D
:102E800072656552746F735C536F757263655C71C4
:102E9000756575652E6300004572726F723A257311
:102EA0002C25640D0A0000008C08002070B5154622
:102EB0000E460446FFF720FE94F944100020491CFA
:102EC00001D184F8440094F94510491C01D184F8DB
:102ED0004500FFF74FFEA06B28B92A46314604F1A2
:102EE000240000F0E9F82046BDE87040FFF756BC2A
:102EF00010B5040012D00E48006B28B140F24952C0
:102F00000CA113A0FDF7D8F900F098F90021204694
:102F1000FEF76CFF00F0B4FF002807D110494FF016
:102F200080500860BFF34F8FBFF36F8F10BD00005C
:102F3000280000202E2E5C4672656552746F735C0B
:102F4000536F757263655C7461736B732E630000FD
:102F50004572726F723A25732C25640D0A000000C9
:102F600004ED00E070B50546FFF7C6FD254C05B938
:102F7000A568281DFFF764FD58B9E86A224A00EBEE
:102F8000800152F8211021B90121814060698843F4
:102F90006061A86A18B105F11800FFF751FD606A79
:102FA000401C6062A068854207D1291D1748FFF7C1
:102FB00097FDE068401CE06004E02069401E20614D
:102FC000FFF774FBFFF7D6FDA068854202D02846C4
:102FD000FFF742F8A069002812D0A06885420FD1FF
:102FE000206B28B140F2DC4209A110A0FDF764F982
:102FF00012494FF080500860BFF34F8FBFF36F8FBF
:1030000070BD000028000020CC080020880B0020A4
:103010002E2E5C4672656552746F735C536F7572C9
:1030200063655C7461736B732E6300004572726F2D
:10303000723A25732C25640D0A00000004ED00E0AF
:1030400002490A6A026009888180704728000020CE
:1030500001490120C86170472800002070B50D4665
:10306000040005D140F61C4207A10EA0FDF724F98B
:103070001048816820461831FFF718FD2846BDE842
:1030800070400121FEF7B2BE2E2E5C46726565527D
:10309000746F735C536F757263655C7461736B738B
:1030A0002E6300004572726F723A25732C25640DF1
:1030B0000A0000002800002070B515460E460400E6
:1030C00005D140F6524210A116A0FDF7F5F81948B7
:1030D00061688268D1618A6883681A6282688B68D5
:1030E00018325A60826818328A6080688462206868
:1030F000401C20600DB14FF6FF7629463046BDE8F2
:103100007040FEF773BE00002E2E5C46726565525D
:10311000746F735C536F757263655C7461736B730A
:103120002E6300004572726F723A25732C25640D70
:103130000A0000002800002030B587B00024039466
:1031400005AA04A903A80494FFF78EFCDDE9030196
:103150000094CDE90110002314A11648059A00F04F
:1031600085FC154DA862F0B100F052FF012802D095
:10317000401C12D017E0902080F31188BFF34F8FCE
:10318000BFF36F8F4FF6FF70A8800120A8612C80DD
:10319000FDF7D6FA00F0AEF805E04FF4046207A19F
:1031A0000DA0FDF789F8E86A07B030BD49444C45E9
:1031B0000000000039210008280000202E2E5C4667
:1031C00072656552746F735C536F757263655C747E
:1031D00061736B732E6300004572726F723A2573D0
:1031E0002C25640D0A00000070B5084C05462088A7
:1031F000A1882844884205D940F6462204A10BA0A4
:10320000FDF75AF820882844208070BD280000204F
:103210002E2E5C4672656552746F735C536F7572C7
:1032200063655C7461736B732E6300004572726F2B
:10323000723A25732C25640D0A0000000248016BC8
:10324000491C0163704700002800002070B51B4C2A
:10325000206B10B10120E06170BD0020E0611848D2
:103260000068A063A06B616B884205D9A068A36B5E
:10327000426D591A11444165A06B60636069114E3B
:10328000B0FA80F0C0F11F0000EB800556F8250071
:1032900028B940F602420CA112A0FDF70DF806EB8A
:1032A000850000F10802416849684160914201D1FE
:1032B00049684160C868A06070BD00002800002017
:1032C00014000020CC0800202E2E5C46726565524A
:1032D000746F735C536F757263655C7461736B7349
:1032E0002E6300004572726F723A25732C25640DAF
:1032F0000A0000007CB5294D28780190FF20287035
:1033000028788DF800009DF800009DF8001000F06E
:10331000F000884205D040F21F1221A12CA0FCF73A
:10332000CBFF9DF800002E4C00F09000207007208D
:10333000606105E09DF8001049008DF80010401E06
:103340009DF800100906F5D4606103280ED040F204
:10335000331213A11EA0FCF7AFFF6069032805D04C
:103360004FF49E720EA11AA0FCF7A6FF207D00026A
:1033700000F4E0606061019828701A48016841F427
:1033800070010160016841F070410160FFF77AFC53
:1033900000206060FCF734FF00207CBD00E400E00A
:1033A0002E2E5C4672656552746F735C536F757236
:1033B00063655C706F727461626C655C52564453F5
:1033C0005C41524D5F434D335C706F72742E6300ED
:1033D0004572726F723A25732C25640D0A00000045
:1033E0008000002020ED00E010B5902080F31188CF
:1033F000BFF34F8FBFF36F8F00F09EFB18B10449EE
:103400004FF080500860002080F3118810BD00004C
:1034100004ED00E02DE9F843DDF820901C0017468C
:103420000E4680464FF0000505D140F2591211A119
:1034300017A0FCF741FFB8F1000F04D01CB10FB189
:1034400056B900E046B14FF4C1720AA110A0FCF7D2
:1034500033FF2846BDE8F8835420012084F8460055
:1034600025464B463A46314640460094FEF7C0FE9C
:10347000EFE700002E2E5C4672656552746F735C38
:10348000536F757263655C71756575652E630000B9
:103490004572726F723A25732C25640D0A00000084
:1034A0002DE9F0410F4604004FF001062BD0E06BF0
:1034B00078B3B51EB5FBF0F1206C814229D3FFF73C
:1034C0001BFBD4E90F20216802FB0011A160002141
:1034D000A163216861600A46D4E90F01401E00FB28
:1034E00001212046E16000F8445F457004F11000BE
:1034F000CFB1FFF7CDFA04F12400FFF7C9FA00BFFE
:10350000FFF738FB0CE04FF488720FA115A0FCF711
:10351000D3FE002640F245120BA112A0FCF7CCFE10
:103520003046BDE8F08121690029E9D000F024FC93
:103530000028E5D00F494FF080500860BFF34F8F4F
:10354000BFF36F8FDCE700002E2E5C46726565527C
:10355000746F735C536F757263655C7175657565C7
:103560002E6300004572726F723A25732C25640D2C
:103570000A00000004ED00E02DE9FF4782B01D467F
:103580008A464FF00008040005D140F22E3254A1C3
:103590005AA0FCF791FEBAF1000F07D1206C28B1B8
:1035A00040F22F324EA155A0FCF786FE022D08D125
:1035B000E06B012805D04FF44C7249A14FA0FCF7F5
:1035C0007BFE00F09FFA40B9BDF8100028B140F230
:1035D000333243A149A0FCF76FFE4FF000094FF0D2
:1035E00080564A4FFFF788FAA06BE16B884208D3F8
:1035F000022D06D0BDF8100038B3B8F1000F27D067
:103600002BE0D4F838802A4651462046FEF7EDFCE0
:10361000A16C41B1022D02D1B8F1000F0FD12046AB
:10362000FEF7F4FE05E0616A19B104F1240000F030
:10363000A3FB20B13E60BFF34F8FBFF36F8FFFF747
:1036400099FA012006B0BDE8F087FFF793FA22E06F
:103650006846FFF7F5FC4FF00108FFF78BFAFFF71C
:10366000EDFDFFF749FA94F94400401C01D184F8BC
:10367000449094F94500401C01D184F84590FFF72F
:1036800079FA04A9684600F071F930B12046FFF7D5
:1036900085F800F0F5FB0020D4E7FFF72DFAA06BCA
:1036A000E16B884214D1FFF765FABDF8101004F100
:1036B0001000FFF7D3FC2046FFF770F800F0E0FBA6
:1036C00000288FD13E60BFF34F8FBFF36F8F89E724
:1036D000FFF750FA2046FFF761F800F0D1FB81E7D1
:1036E0002E2E5C4672656552746F735C536F7572F3
:1036F00063655C71756575652E6300004572726F58
:10370000723A25732C25640D0A00000004ED00E0D8
:103710002DE9F0471F4616468A46040005D140F2BF
:10372000024230A136A0FCF7C7FDBAF1000F07D165
:10373000206C28B140F203422AA131A0FCF7BCFD65
:10374000022F08D1E06B012805D040F2044225A1E8
:103750002BA0FCF7B1FDFFF723FB9021EFF31180C5
:1037600081F31188BFF34F8FBFF36F8F8046A06B3B
:10377000E16B884206D3022F04D0002088F3118821
:10378000BDE8F08794F94550D4F838903A46514650
:103790002046FEF72AFC681C02D07F2D16D01BE0C5
:1037A000A06C012540B1022F02D1B9F1000F16D152
:1037B0002046FEF72BFE05E0606A80B104F124008C
:1037C00000F0DAFA58B156B1356008E040F28D42A7
:1037D00004A10BA0FCF770FD6D1C84F8455001207E
:1037E000CCE700002E2E5C4672656552746F735CE8
:1037F000536F757263655C71756575652E63000046
:103800004572726F723A25732C25640D0A00000010
:103810002DE9F747002683B08A46040005D140F21F
:10382000515246A14CA0FCF747FDBAF1000F07D159
:10383000206C28B140F2555240A147A0FCF73CFD56
:1038400000F060F940B9BDF8140028B140F25A52B6
:103850003AA141A0FCF730FD4FF000094FF080572E
:10386000DFF80481FFF748F9A56BC5B15146204642
:10387000FEF7A8FB6D1EA563206950B104F110008E
:1038800000F07AFA28B1C8F80070BFF34F8FBFF389
:103890006F8FFFF76FF9012006B0BDE8F087BDF824
:1038A000140008B11EB106E0FFF764F927E068468E
:1038B000FFF7C6FB0126FFF75DF9FFF7BFFCFFF737
:1038C0001BF994F94400401C01D184F8449094F908
:1038D0004500401C01D184F84590FFF74BF905A93C
:1038E000684600F043F8002820460AD0FEF756FF4D
:1038F00000F0C6FA2046FEF77BFD0028B2D000207B
:10390000CAE7FEF775FD98B1BDF8141004F1240064
:10391000FFF7A4FB2046FEF741FF00F0B1FA0028B4
:10392000A0D1C8F80070BFF34F8FBFF36F8F99E736
:103930002046FEF733FF00F0A3FA93E72E2E5C46F5
:1039400072656552746F735C536F757263655C71F9
:10395000756575652E6300004572726F723A257346
:103960002C25640D0A00000004ED00E02DE9F04173
:103970000C46050005D140F6FD4219A11FA0FCF739
:103980009BFC2CB940F6FE4215A11CA0FCF794FC50
:10399000FFF7B2F81D4E3288AB88D01A81B220886A
:1039A000A0F57F47FF3F0AD02F68D6F820C0002639
:1039B000674506D0934204D8012526800BE00025F8
:1039C00009E0884205D9401A20802846FFF738FBD5
:1039D000F5E726800125FFF7CDF82846BDE8F08100
:1039E0002E2E5C4672656552746F735C536F7572F0
:1039F00063655C7461736B732E6300004572726F54
:103A0000723A25732C25640D0A000000280000205E
:103A10002DE9FF5F8346DDE90E87994616468A4603
:103A20009000FEF7F7FE05001CD06020FEF7F2FEC6
:103A3000040014D00020256384F85D00CDE9024025
:103A4000CDE900874B46324651465846FEF7E4FB27
:103A50002046FEF713FA012004B0BDE8F09F284687
:103A6000FFF7BCF84FF0FF30F6E700002DE9F04714
:103A700086B01F46DDE90F540E9E90468946824669
:103A80002DB940F24A2214A11AA0FCF715FC2CB95A
:103A900040F24B2210A117A0FCF70EFC6020009012
:103AA0000020B4B1ADB10221256384F85D1003900C
:103AB00004A90096CDE901143B46424649465046CA
:103AC000FEF7AAFB2046FEF7D9F9049806B0BDE838
:103AD000F0870490FAE700002E2E5C46726565526E
:103AE000746F735C536F757263655C7461736B7331
:103AF0002E6300004572726F723A25732C25640D97
:103B00000A0000000548816919B1006B18B1002056
:103B100070470120704702207047000028000020F5
:103B200010B5FEF7E9FF03480488FFF723F82046A5
:103B300010BD0000280000202DE9F0414A4C00266D
:103B4000206B28B16088401C60803046BDE8F08161
:103B50002088401C05042D0C258011D1E06B0068E5
:103B600028B140F6C72241A147A0FCF7A5FBE06BB6
:103B7000216CE1632064206A401C2062FEF796FD00
:103B8000A18845488D420FD34FF0000EE16B0968C4
:103B900039B1E16BC968C9688A88954212D2A2809E
:103BA00002E04FF6FF71A180A168C96A01EB8101B3
:103BB00050F82100012800D90126E0690028C4D06E
:103BC0000126C2E7D1E902724B69BA60D1E9022746
:103BD0007A605F680A1D974201D1CF685F60C1F8C3
:103BE00014E01F687F1E1F60D1F828C0BCF1000FD1
:103BF00015D0D1E907379F60D1E907377B60DCF842
:103C0000047001F118039F4202D10B6ACCF8043012
:103C1000C1F828E0DCF800305B1ECCF80030CB6A3D
:103C20000127D4F814C09F4047EA0C07676103EBF3
:103C3000830300EB83035B688B609F68CF609F68A2
:103C40007A609A60CA6A02EB820200EB82034B61DF
:103C500050F822305B1C40F82230C96AA268D26A50
:103C6000914293D3012691E7280000202E2E5C4636
:103C700072656552746F735C536F757263655C74C3
:103C800061736B732E6300004572726F723A257315
:103C90002C25640D0A000000CC08002070B504003B
:103CA0004FF000064BD0274DA868844205D041F262
:103CB0004F0225A12BA0FCF7FFFA206D28B941F295
:103CC000500221A127A0FCF7F7FA206D401E2065C5
:103CD000E26CE16A914232D088BB201DFEF7B0FE53
:103CE000012130B994F82C006A6901FA00F082438E
:103CF0006A61E06CE062C0F120002083E06A6A69DA
:103D00008140114369611B4900EB800001EB800099
:103D10004068A0608268E2608368221D5A60826009
:103D2000E06A00EB800001EB80006061E06A00EB7C
:103D3000800051F82020521C41F8202001263046F6
:103D400070BD0000280000202E2E5C467265655272
:103D5000746F735C536F757263655C7461736B73BE
:103D60002E6300004572726F723A25732C25640D24
:103D70000A000000CC08002070B5C068C4682CB9E7
:103D800040F6824230A137A0FCF796FAD4E907202A
:103D9000A16A9060D4E9070250604A6804F11800F3
:103DA000824201D1226A4A600022A2620B685B1E35
:103DB0000B60304D296B012699B12F4A5168E161A2
:103DC0008B6823628B6858608860A2621068401C10
:103DD0001060E06AA968C96A884233D90120EE619F
:103DE00070BDD4E9023160699960D4E90213596069
:103DF0004368211D8B4201D1E36843606261026820
:103E0000521E0260E06A6B6906FA00F21A436A61A8
:103E10001A4A00EB800002EB80004068A0608368D3
:103E2000E360836859608160E06A00EB800002EB28
:103E30008001616152F82010491C42F82010FEF701
:103E400035FCC6E7002070BD2E2E5C4672656552BB
:103E5000746F735C536F757263655C7461736B73BD
:103E60002E6300004572726F723A25732C25640D23
:103E70000A00000028000020740B0020CC0800205D
:103E80002DE9F041464D00242746286B28B940F61D
:103E9000B30244A14AA0FCF70FFAFEF72DFE286BEF
:103EA000401E2863286B002874D12869484B0026DF
:103EB0004FF00108F0BB6DE0D868C468D4E9072171
:103EC000A06A9160D4E907125160426804F11801B8
:103ED0008A4201D1216A4160A6620168491E0160DF
:103EE000D4E9022160699160D4E90212516042680C
:103EF000211D8A4201D1E268426066610268521E59
:103F00000260E26AD5F814C008FA02F040EA0C0038
:103F1000686102EB82002F4A02EB80004068A060DB
:103F2000D0F808C0C4F80CC0D0F808C0CCF8041011
:103F3000816000E011E0E06A00EB800002EB8001AC
:103F4000616152F82010491C42F82010E06AA9680B
:103F5000C96A884201D3C5F81C8018680028ABD113
:103F60000CB1FEF7A3FB6C8854B100BFFFF7E4FD72
:103F700008B1C5F81C80641E2404240CF6D16E80A0
:103F8000E86938B11449012738070860BFF34F8F3B
:103F9000BFF36F8FFEF7EEFD3846BDE8F0810000FD
:103FA000280000202E2E5C4672656552746F735C8B
:103FB000536F757263655C7461736B732E6300007D
:103FC0004572726F723A25732C25640D0A00000049
:103FD000740B0020CC08002004ED00E02DE9FC4724
:103FE00081461E46174688462C200A9DFEF712FC85
:103FF00004000AD0002084F82800CDE9005433469C
:104000003A4641464846FEF777F92046BDE8FC8728
:1040100030B587B00024FDF7A9FF114D6868B0B135
:1040200000200390049005AA04A903A8FEF726FD2A
:10403000DDE903211F208DE80700002309A10B48BB
:10404000059AFFF713FDA86008B1012405E040F2CE
:10405000191207A10DA0FCF72FF907B0204630BDBB
:104060006C000020546D722053766300792700089D
:104070002E2E5C4672656552746F735C536F757259
:1040800063655C74696D6572732E63004572726F4F
:10409000723A25732C25640D0A0000002DE9FF47B4
:1040A000DDF830A0994690460E4607004FF0000418
:1040B00005D140F28B1212A118A0FCF7FDF81B4DA0
:1040C000686888B10096ADF804800297062E11DA70
:1040D000FFF718FD02284FF0000309D000226946BF
:1040E0006868FFF749FA044604B02046BDE8F08747
:1040F0005246F4E700234A466946FFF709FBF2E718
:104100002E2E5C4672656552746F735C536F7572C8
:1041100063655C74696D6572732E63004572726FBE
:10412000723A25732C25640D0A0000006C000020F3
:104130000000000000000000010203040607080957
:104140000000000001020304684100080000002094
:10415000C40000006C0100082C420008C4000020CC
:104160002463000088010008000000000000000037
:10417000000000000000000000000000000000003F
:1041800001000000100000000000000000A24A042E
:10419000000000000000000000000000000000001F
:1041A000000000000000000000000000000000000F
:1041B0000000000000000000000000001F000000E0
:1041C00000000000000000000000000000000000EF
:1041D00000000000000000000000000000000000DF
:1041E000000000000000000000000000AAAAAAAA27
:1041F00000000000000000000000000000000000BF
:1042000000000000000000000000000000000000AE
:10421000000000000000000000000000000000009E
:0C42200000000000000000000000000092
:0400000508000131BD
:00000001FF
